:020000040800F2
:10000000002000105588000821860008238600087B
:10001000318600083F8600084D8600080000000079
:1000200000000000000000000000000081880008BF
:100030005B8600080000000085880008377F000804
:10004000898800088D88000891880008437100089D
:100050009588000899880008E57700089D880008C1
:10006000A1880008A5880008A9880008AD880008B4
:10007000B1880008B5880008B9880008BD88000864
:10008000C1880008C5880008C9880008CD88000814
:10009000D1880008D5880008D9880008DD880008C4
:1000A000E1880008E5880008E9880008ED88000874
:1000B000F1880008F5880008F9880008FD88000824
:1000C0000189000805890008098900080D890008D0
:1000D00011890008C96100081589000819890008FC
:1000E0001D89000821710008218900082589000860
:1000F000298900082D890008318900083589000800
:10010000398900083D8900084189000845890008AF
:10011000CD860008498900084D89000851890008EA
:1001200055890008598900085D890008618900081F
:1001300065890008AB770008698900086D890008A7
:100140007189000875890008798900087D8900088F
:100150008189000885890008898900088D8900083F
:100160009189000895890008998900089D890008EF
:10017000A1890008A5890008A9890008AD8900089F
:10018000B1890008B58900082DE9F0439FB0814688
:100190002698DFF8CC8A8DF83B00174600201E46D3
:1001A00002910B900FF270144FF0FF350AE017F830
:1001B000011B0298C8470028029000F09A800B9813
:1001C000401C0B90387850B12528F0D10020002138
:1001D000059006910790089109900A9103E00B9809
:1001E0009EE041F0010117F8010F2028F9D02328E3
:1001F0000DD02B2804D02D2806D030280AD07AE044
:1002000041F0020189B2EEE741F00401FAE741F062
:100210000801F7E741F01001F4E700200D9009E034
:100220000D98404505DA00EB800302EB4302303ABB
:100230000D927F1C3A78A2F130000A28F0D33A7868
:100240002E2A18BF0C9523D117F8010F2A2807D1A1
:10025000306830607F1C50F8042B30600C9217E03F
:100260002D280CBF17F8010B002000220C920AE089
:1002700040B90C9A424505DA02EB820203EB4203D5
:10028000303B0C937F1C3B78A3F130020A2AEFD35A
:10029000ADF838102046397800F066FE08B117F83E
:1002A000010B8DF83A009DF83A00682804BF3978B0
:1002B000682903D162208DF83A0007E06C2804BF5A
:1002C00038786C2803D171218DF83A107F1C10A862
:1002D0000490324617F8013B6946484600F060F842
:1002E00038B910AA6946484600F08CF900287FF515
:1002F00069AF284614E02A288FD13068306050F862
:10030000042B3060002A0D9204D5524241F00401C2
:100310000D9289B27F1C92E7686A6C747A4C000077
:100320001FB0BDE8F083622820D0682811D06A2869
:1003300003D06C2827D0712825D10868C01D20F073
:1003400007000860D0E9002308300860194610460D
:100350007047002A0A680A60106803D0121D0A60FC
:1003600000B217E0121D0A6080B217E0002A0A6886
:100370000A60106803D0121D0A6040B20AE0121D24
:100380000A60C0B20AE0002A0A680A60106803D056
:10039000121D0A60C1177047121D0A6000217047C4
:1003A00070B51C460D46B4F125002E69114600F0CB
:1003B00017811C386AD0001F022867D9133843D030
:1003C000093863D0801E16D0401E1ED0401E022861
:1003D0005CD9001F19D0401F00F08380401E33D02D
:1003E000401E00F0CD80C01E00F0D880801E2BD0B3
:1003F000C01E29D0FAE06869421C6A610A680A6076
:1004000052F8043B0A603354FAE095F83A000122AE
:10041000FFF789FFC5E900010023994204DA686902
:10042000411C69612D210DE0288F810704D5686981
:10043000411C69612B2105E0C00722D56869411C78
:100440006961202131541CE095F83A000022FFF741
:100450006AFFC5E9000195F83800010711D5D5E913
:1004600000230020834208BF82420AD044F02000CB
:10047000782806D1686930213154401C411C6961DB
:100480003454214668693044E86083E00868C01D40
:1004900020F007000860D0E9002308300860C5E9B3
:1004A0000023D5E90001C80F04D06869411C6961C7
:1004B0002D210DE0288F810704D56869411C6961F1
:1004C0002B2105E0C00704D56869411C6961202122
:1004D000315468693044E8602146284600F0C7F985
:1004E0008EE005F13A02507820B14FF0FF340FF65C
:1004F00010205EE01078622808D0682824D06A288E
:1005000012D06C282ED071280ED02BE00A680A6019
:1005100052F8040B0A6020B94FF0FF340FF6F810C0
:1005200047E0E96A01706BE00A680A6052F8040B60
:100530000A6020B94FF0FF340FF6DC1039E0EA6AA8
:10054000D317C0E900235BE00A680A6052F8040B85
:100550000A6020B94FF0FF340FF6BC1029E0E96AB9
:1005600001804DE00A680A6052F8040B0A6020B965
:100570004FF0FF340FF6A0101BE0E96A01603FE086
:100580000A680A6052F8040B0A600021C5E90001FC
:10059000EE607821284600F0BCF831E00868086079
:1005A00050F8044B0860EC603CB94FF0FF340FF694
:1005B000801000F0E5FC201A70BD2E6B002E04D5D3
:1005C000204600F0FFFC044608E0324600212046A9
:1005D00000F014FD002814BF041B3446AC610FE08A
:1005E0006869411C69612521315409E06869411C31
:1005F000696125223254200002D0481C686174547D
:10060000002070BD2DE9F0410F4682B00646796B9F
:100610007869BC6A091A386A091AB869091A786AC5
:10062000091AF869091A97F838000C1B4107904617
:100630000FD42021002C8DF800100ADD254601235F
:100640006A463946304600F044FC00285DD16D1EF4
:10065000F5D17B6942463946304600F03AFC002825
:1006600053D130208DF800003D6A002D09DD0123B3
:100670006A463946304600F02CFC002845D16D1EF4
:10068000F5D1BB69FA683946304600F022FC0028F3
:100690003BD130208DF800007D6A002D08DD01235C
:1006A0006A463946304600F014FC70BB6D1EF6D128
:1006B000F868B969FB6942183946304600F009FC10
:1006C00018BB30208DF80000BD6A002D08DD012325
:1006D0006A463946304600F0FCFBB0B96D1EF6D1D3
:1006E00097F8380041070DD52021002C8DF8001017
:1006F00008DD01236A463946304600F0EAFB20B99E
:10070000641EF6D10020BDE8F6814FF0FF30BDE851
:10071000F6812DE9FC4B06468B463469BBF16F0F21
:1007200008BF082505D04BF02001782914BF0A2501
:1007300010253C27D6E90023BBF1640F18BFBBF19D
:10074000690F9046994606D100218B4203DAD8F111
:10075000000869EB49090020814508BF80451FD189
:10076000306BE8B9082D4ED196F8380001074AD50C
:1007700030203B2784F83B0045E000280ED596F852
:10078000380000F01400102808D1726B7069121A3A
:10079000306A121A511A0029C8BF3162BDE8F38BC2
:1007A00001968DF800B0404649462A46EB1700F006
:1007B00051FC30327F1ED2B23A2A04DB9DF8000091
:1007C000A0F151018A18E255404649462A46EB17E6
:1007D00000F040FC894600228046914508BF9045C4
:1007E00004D00198C168E0198142DCD3082D019E34
:1007F00009D196F83800010705D5E15D302902D00E
:100800007F1E3020E055E019F060C7F13C01306BED
:10081000B1618142B1DA411A31624FF6EF70318F26
:1008200001403187BDE8F38B2DE9D04306460F46E2
:1008300014464FF00008DFF82C9412E0E00707D5CB
:1008400042464B463046394600F07CFC06460F4691
:100850004046494642464B4600F074FC64108046D0
:100860008946002CEAD130463946BDE8D0832DE9CF
:10087000F04705468A468EB0D5E900894AF0200047
:10088000612802AF00900AD0286B002802D506200C
:10089000286304E001BF0098672801212963D5E996
:1008A000006460004015401C0DD121030BD0AAF15B
:1008B000610103201A29A86102D20FF2906110E0B1
:1008C0000FF28C610DE060004015401C0ED1210339
:1008D0000CD1AAF1610103201A29A86116D30FF2E5
:1008E0007861E868032200F0FFFCCBE124F00043CC
:1008F000B3F5801F26F0000211D20020834208BF0A
:100900008242019005D13046214612E00FF2446147
:10091000E7E701AA3046214600F03AFD09E0D24857
:10092000D24900EB1350019004EA0102D04930464D
:100930001143C5E90001009A612A0DD1E868302110
:100940000170811CE960BAF1610F0CBF7821582158
:1009500041706869801C6861D5E90023CDE90C23EA
:10096000DDE90C0121F0004100220023994204BF7F
:100970009042002000F04D810098612840F09C805A
:10098000286B00284CBF2120401C00904046009E50
:10099000761C4946DDE90C8900F032FD01988DF89E
:1009A000082038BF89F00049001F0190002E0DF18A
:1009B000090040F33C810746404649460022002397
:1009C00000F036FD80F032814800400D00F11C023D
:1009D00011D0002A0FDD40F2FF70824205DBA549ED
:1009E00009F000400143002012E06FF31E5141EA7C
:1009F000025140460CE029F0004128F000009942E5
:100A000008BF98420FBF49461C22494600F028FD06
:100A10008046894600F0C2FDF61F002E044609DD1F
:100A200000F0DAFD02460B464046494600F0E6FD7E
:100A300080468946F81D072104E004F00F0200F803
:100A4000012D2411002C01DD491EF6D5491E5CBF85
:100A5000002200F8012DF9D5E4E00020194602AA91
:100A60000A4400E05B1E12F80149491E8442F9D095
:100A70000F2804D10DF10900425C521C4254002998
:100A800004D50198001D02AF5B1C0190581E0CD4C8
:100A90003918AAF13A040A783032D2B2392AC8BFDA
:100AA000A218401E01F80129F5D5286B002840F155
:100AB000AF80591E2963ABE04046494600F0A0FCD8
:100AC000019938BF89F0004947F2975041436A4A7B
:100AD00091FBF2F20192D2F1070204DD4046494651
:100AE000FFF7A2FE0AE0524200206449FFF79CFE95
:100AF00002460B464046494600F0F2FD804600980B
:100B00005F4E6628286B06BF019C0A340624241811
:100B1000142CC8BF142430208DF8080089460DF12C
:100B2000090000E03846002C34DD074640464946BF
:100B300000F0FAFE01460A4607F1080304200A27DE
:100B4000B2FBF7F707EB870EA2EB4E02303203F849
:100B5000012C0A22B7FBF2F202EB820EA7EB4E0742
:100B60003037401E03F8027DE9D1083C002C03F128
:100B70000807D7DD084600F0EBFE02460B4640466C
:100B8000494600F03BFD0022334600F0DBFA804688
:100B90008946CBE70DF10901401A0DF1090704E080
:100BA0000199491E401E01917F1C39783029F7D0E8
:100BB000009A662A02D10199491C03E0652A0CBFFC
:100BC000012100212B6BCB189842B8BF431E002B8C
:100BD0001ED4834204DAF85C3528A8BF392000DA35
:100BE000302019467A1E02EB010800E05B1E18F85F
:100BF0000199491E8145F9D0392802D1785C401C01
:100C00007854002904D50198401C17465B1C0190BC
:100C1000019800B200901BB23A465146284600F0B7
:100C200034F82FE0C71D002E3FF7C6AE38460DF151
:100C30000901401A009903468842C8BF0B46002BA1
:100C40000DF109073FF531AF8342BFF606AF0DF155
:100C50000900C05C07287FF700AF0F20FEE6000008
:100C6000CBCCCC0C0000244002FCFFFFFFFF0F8028
:100C70000000E03F0000F07FA08601000000F03F90
:100C800084D797410EB0BDE8F0872DE9F0460646BF
:100C900085B01C46376B002C914602DC01240FF214
:100CA000BC298A46BDF930504AF02000662808BFAA
:100CB0006D1C12D0672878D115F1040F7BDBBD4283
:100CC00079DA96F838006D1C010702D4BC42B8BF2F
:100CD00027462DB27F1B48BF00272DB2F068B169AF
:100CE000002D23DC4A1C30234354002F03DC96F8EC
:100CF0003800010703D5F0682E218154521CEF42C1
:100D0000B8BF7D422DB26842ED19A542B8BF2C464E
:100D1000B261706224B2F461F068B3692246494658
:100D2000184400F0E1FA281BB062BBE02A46944266
:100D3000084416DA2246494600F0D6FAB06920186F
:100D4000B0612C1B002F746203DC96F838100A0780
:100D500005D5F1682E220A54F069401CF061B76293
:100D6000A0E0494600F0C0FAB0692818641B002FC3
:100D700003DC96F838100A0703D5F1682E220A54CE
:100D8000401CB06124B2A742B8BF3C46F068B369CA
:100D900024B2224609EB0501184400F0A5FAB06917
:100DA0002018B0613C1B74627CE0BAF1610F14D171
:100DB0004FF0700A16E0BC4204DA96F838100A07C1
:100DC00058BF27467F1E48BF0027BAF1670F14BFE0
:100DD0004FF0450A4FF0650A04E0BAF1410F08BF31
:100DE0004FF0500AB169F368481CB061002F19F840
:100DF000012B5A5403DC96F838100A0717D5F2680D
:100E0000431CB3612E211154002F10DD641E24B247
:100E1000A742B8BF3C46F06824B22246494618446F
:100E200000F062FAB0692018B0613F1B7762F06889
:100E3000B1690844002D80F800A003D42B21417033
:100E4000811C03E02D2141706D42811C00206A4607
:100E50000AE02B460A2493FBF4F505EB8504A3EB8B
:100E6000440302F8013B401C2DB2002DF1DC0128A7
:100E700006DC4AF02002652A04BF302201F8012B6B
:100E800048B9302001F8010B07E0401E1DF8002092
:100E9000303201F8012B0028F7DCF068B269104409
:100EA000091AF16196F8380000F0140010280DD1ED
:100EB0007169B0694118706A4118F0694118B06AE7
:100EC0004118706B8142BCBF411A316205B0BDE868
:100ED000F086F8B505460E4617461C46002074B14C
:100EE00017F8011BB068A847B06030B1F06A401C29
:100EF000F0620020641EF3D1F2BD4FF0FF30F2BD6E
:100F00007072696E74665F733A20256E206469732F
:100F1000616C6C6F776564007072696E74663A20FC
:100F200062616420256E20617267756D656E740064
:100F30007072696E74665F733A2062616420257313
:100F400020617267756D656E740000006E616E00E1
:100F50004E414E00696E6600494E46003000026800
:100F6000531C0360117070470278C9B28A421AB1EB
:100F70001CBF10F8012FF9E718BF002070470000D0
:100F800080B508B90FF21C0005490B681BB122227D
:100F90000021984701E000F0E8FC222002BD00009B
:100FA00094EC0020636F6E73747261696E742068D4
:100FB000616E646C65723A20626164206D65737362
:100FC0006167650000F10103810704D010F8011B7F
:100FD00089B18107FAD10268B2F10131914311F070
:100FE000803F04BF50F8042FF6E710F8011B11B141
:100FF00010F8011BFBE7C01A70470000C9B2830755
:1010000006D0521E22D310F8013B9942F7D11FE0BF
:10101000083A13D302F1040241EA012141EA0141F5
:1010200050F8043B121F21BF4B40A3F1013C2CEAB6
:10103000030C1CF0803FF3D0C9B2001F083210F837
:10104000013B521E28BF91EA030FF8D818BF0120B8
:10105000401E70471B4213D1094236D12AB1844643
:10106000B0FBF2F002FB10C2704700F081BCFCD371
:101070000022002370470B0002000021002070476F
:10108000904271EB030CF6D370B5B1FA81F4B3FA68
:1010900083F52C1BA340C4F1200532FA05F6334337
:1010A000A2405FF00046E64002E05B085FEA3202E1
:1010B000841A71EB030524BF204629467641F4D3F8
:1010C00002000B003000002170BD012ACFD970B59D
:1010D000140C20D0B1FA81F4B2FA82F5C4F12004E4
:1010E0006419B4F12006D6D3B2405FF00044F44056
:1010F000002502E052085FEA3303C61A71EB020EC4
:1011000024BF3046714664416D41F3D302000B00A9
:101110002000290070BD0C46B1FBF2F102FB114525
:101120002D0445EA1045B5FBF2F402FB145580B2DC
:1011300040EA0545B5FBF2F002FB105240EA0440DC
:1011400070BD0000B0B581EA030C0CF0004C40F219
:10115000FF7515EA11541DBF15EA1357AC42AF4293
:1011600039E0E41923EA455343F48013C90241F0FE
:10117000004141EA505EC7021100A7FB02020028AD
:101180004FF00000EEFB01204FF00001E3FB0721D0
:1011900018BF42F00102401800214941E3FB0E0153
:1011A000A4F580640F0302D252004041494154F13A
:1011B00001046CDD470872F1004250F1000051EB70
:1011C0000451A1F580115CBF41EA0C01B0BD4CEAAD
:1011D00005510020B0BD05EA1357AC4214BFAF4221
:1011E00041E050EA410E1CBF52EA430E02E0614664
:1011F0000020B0BD24423C441BD15FEA070EF6D06C
:10120000090302BF01460020AEF1140EB1FA81F7C6
:10121000AEEB070401FA07FE0C37C7F1200100FA14
:1012200007F7C8404EEA000E23EA455343F4801303
:10123000A2E733F00043B3FA83F704BFB2FA82FEA9
:1012400077440B3FE41BB7F1200E2FBF02FA0EF3D9
:10125000BB40C7F1200E22FA0EFE38BF43EA0E0350
:10126000BA40641C82E750EA410E14BF52EA430EB2
:101270006FF000014FF4001717EB430F8ABF1946B8
:1012800017EB410FB5E74CEA05510020B0BDD4F192
:101290000104B4F120070FDAC4F12007520828BF77
:1012A00042F0010210FA07F501FA07F7E1BF2A43FD
:1012B000E0403843E1400FE0352C98DCC7F12004D2
:1012C00052EA400220FA07F218BF42F0010231FA56
:1012D00007F0A1400A43002172F1004250F10000E2
:1012E00051EB0C01B0BD000062B38B0708D0521E59
:1012F00011F8013B00F8013B00F024808B07F6D188
:10130000830740F0208000BF103A07D330B4B1E823
:101310003810103AA0E83810F9D230BC530724BF77
:10132000B1E80810A0E8081044BF51F8043B40F8A9
:10133000043BD20724BF31F8022B20F8022B44BF14
:101340000B7803707047121F17D35B0009D151F857
:10135000043B20F8023B1B0C121F20F8023BF6D284
:101360000BE051F8043B00F8013B1B0A20F8023B5C
:101370001B0C121F00F8013BF3D238BF121D521E86
:1013800024BF11F8013B00F8013BF8D8704700007A
:1013900010B5144600F002F8226010BDC1F30A53E4
:1013A00043B14A0012F5001F28D2A3F2FE32A1EB8E
:1013B0000251704750EA410C20D001F0004C31EA54
:1013C0000C01B1FA81F204BFB0FA80F3D2180B3AE3
:1013D000B2F120032CBF00FA03F1914041EA0C0165
:1013E0003EBFC2F1200C20FA0CF319439040524248
:1013F00040F2FD33D21A01EB0351704700227047CF
:101400004FF4001C1CEB410F94BF1CEB430F09E091
:1014100041EA030C50EA4C0C52EA0C0C03D29942FC
:1014200008BF9042704714BF8B4282427047000051
:101430004FF4001C1CEB410F94BF1CEB430F09E061
:1014400041EA030C50EA4C0C52EA0C0C03D28B42DA
:1014500008BF8242704714BF994290427047000013
:10146000124254D440F2FF7C1CEA11530FD0634562
:1014700031D09B1863453CBF01EB0251704701F02E
:10148000004141EA0C510020AFF30080704750EA60
:10149000410320D001F0004C91EA0C011CD0B1FABC
:1014A00081F30B3B9A420DD9D21A994051EA0C01B3
:1014B000C3F1200C20FA0CFC61449840531C40F20C
:1014C000FF7CD7E7914041EA0C01C2F1200C20FAE1
:1014D0000CF3194390407047B0FA80F31533202B7A
:1014E000E0D3202AEED3203A203B9A4209D9D21ADF
:1014F00000FA03F141EA0C010020531C40F2FF7C8A
:10150000B8E700FA02F141EA0C01002070475242AC
:1015100040F2FF7C1CEA11530DD06345DBD0B2EBE7
:10152000030C3CBFA1EB025170470CF1010221EA10
:10153000035141F4801150EA410CCCD001F0004C31
:10154000352A27DC30B481EA0C01B2F1200309DA34
:10155000C2F12003044601FA03F5D0402843D140EC
:101560009C400CE0C3F12002450020FA03F418BFB0
:1015700044F0010421FA03F091400C43002174F17E
:10158000004550F1000051EB0C01244230BC7FF4C7
:101590007BAF70476146002076E70000C1F30A5335
:1015A00040F2FE329B1A14DDD3F120034FEAE172C0
:1015B00008DDC90241EA505141F00040D84080188E
:1015C0005040704703F2E13010B1D24382F0004046
:1015D0007047002070470000C11768B14840401AAA
:1015E000B0FA80F29040D21CC907C2F5846241EA89
:1015F000025202EBD02140057047000070B44FF05A
:10160000004591EA030F40F1B5816B40841A71EBFC
:10161000030603D2001BB141121973414FF4001CA1
:101620001CEB410F34BF7CEB430442E00C0DA4EBF8
:101630001356352E4FDC45EAC323DB0A45EAC121A8
:10164000C912B6F120050DDD63FA05F6EB4086EA16
:101650000305124218BF45F00105C01851F1000101
:101660000CD213E062FA06F5F2405540F3415A40BD
:10167000B340F3405A408018594107D349085FEA04
:1016800030005FEA350528BF45F0010501F58011FE
:10169000420875F1004250F1000041EB04514E0048
:1016A00016F5001F70BC38BF70470020090D0905F2
:1016B00070471CEB410F10D252EA43060BD0BCEB33
:1016C000410F05D80C0DAB43661E342EB6DD02E08B
:1016D000AB438018594170BC704770BC7047000024
:1016E000F0B540F2FF7581EA030C0CF0004C15EAEE
:1016F00011541DBF15EA1357AC42AF42E5E0BC419F
:10170000C1F31301C3F31303801A994143F4801307
:1017100004D2641E4000494180185941C90241EA7F
:101720005051B1FBF3F603FB1611A2FB0675D7EB84
:10173000C020A94102D2761E80185941C90241EA4F
:101740005051B1FBF3FE03FB1E11A2FB0E75D7EB4C
:10175000C020A94103D2AEF1010E8018594189027F
:1017600041EA9051760546EA8E2EB1FBF3F603FB73
:101770001611A2FB0675D7EB8020A94102D2761E76
:1017800080185941C90241EA50514EEA060EB1FB98
:10179000F3F603FB1611A2FB0675D7EBC020A94197
:1017A00002D2761E80185941C90241EA5051B1FB5C
:1017B000F3F703FB1711A2FB0735D3EBC020A941B8
:1017C00067F100070CBF004247F0010766F3D52719
:1017D0004FEA1E31B80814F5806412DDBD0775F1BB
:1017E000004250EB0E5051EB045111F5801F5CBFCD
:1017F00041EA0C01F0BD4CF07F6141F0E041002076
:10180000F0BDBD076D0840EA0E5041F48011D4F1DF
:101810000104B4F120060ADAC4F120060200E04017
:1018200001FA06F3E1401843B24015430EE0342CB0
:1018300013DCC6F1200445EA40056D0820FA06F2E3
:10184000154321FA06F0A1400D43002175F1004235
:1018500050F1000051EB0C01F0BD00205FEA0C01DB
:10186000F0BDCFB992185B41B3FA83F704BFB2FA67
:1018700082F6BF190B3FB7F120062FBF02FA06F31D
:10188000BB40C7F1200622FA06F638BF3343BA4000
:101890001CB1E419641E33E77F4231F00041B1FA14
:1018A00081F404BFB0FA80F6A4190B3CB4F1200611
:1018B0002FBF00FA06F1A140C4F1200620FA06F677
:1018C00038BF3143A0403C1B1AE7AC421ABF05EABF
:1018D0001357AF4212E050EA41061CBF52EA4306DA
:1018E000BFE750EA4107304661461CBF41EA055157
:1018F000F0BD52EA430C08BFC143F0BD00204FF4D5
:10190000001616EB410F98BF16EB430F08BF16EBFE
:10191000410F24BFC14305E016EB430F0CBF6146E6
:101920004CEA0551F0BD0000400D491840EA812005
:101930000CD2490DA1F58061491C40F0004005DB47
:10194000D1F11F0154BFC840C01770470020704735
:10195000014648B1B0FA80F18840C91CC1F58461E4
:10196000090501EBD02140057047012000F0B6B811
:1019700070470000841A71EB030604D26E40001B0E
:10198000B141121973414FF4001C1CEB410F34BFDD
:101990007CEB430682E00C0DA4EB1356362E7BDC69
:1019A000012E45EAC32341DC43EA525312BFD2025F
:1019B00092025B08240545EAC12141EA5051D2EB6D
:1019C000C020994125D407D1B0FA80F610FA06F16B
:1019D00062D00020203608E0B1FA81F6B140C6F1AD
:1019E000200220FA02F21143B0404FEAF474B4EB43
:1019F000465434F001064FEA74040AD8D6F50016AE
:101A0000760D04F00044F04061FA06F25040F140D7
:101A10004840C00A40EA415021F0004128BF5FEA37
:101A2000500550F1000044EBD12135E0DB0A45EAD6
:101A3000C121C90AB6F120050EDD42EA0242120CAC
:101A4000C5F1200603FA06F6EB4042EA06056D42B0
:101A5000984161F100010DE062FA06F5F24055404F
:101A600063FA06FC82EA0C02F3405A406D42904150
:101A700061EB030111F4801F05D1641E620502D0E1
:101A80006D004041494121F48011430875F1004344
:101A900050F1000041EB045170BC70471CEB410F4A
:101AA00015D223F0004352EA43060BD04FEA4C0C08
:101AB000BCEB410F04D80C0D661E342EB7DDEBE7EE
:101AC000801A994150EA410608BF0021E4E708BFA7
:101AD0001CEB430F28BF6FF00001DDE780B5AFF3CB
:101AE0000080024A11001820ABBEFBE7260002006E
:101AF0002DE9F04383B005460C466868DFF85C6C5E
:101B00003062017801F00F0200EB8200F061890081
:101B100001F03C01494209B2284600F02EFF00289E
:101B200040F0768128891428C0F07281DFF8307C7B
:101B30002146386801F038F8002840F0698138788B
:101B400000F0F000E02800F06381F069808901F086
:101B50004AF8000B80004042014609B2284600F0D6
:101B60000CFF002840F05481F069008801F03BF838
:101B7000F1690880488801F036F8F16948804868C2
:101B800001F040F8F16948607062F169886801F01D
:101B900039F8F1698860B062F069C08901F023F812
:101BA000F169C881888901F01EF800F03F003070AB
:101BB000804608F00300401E8041C043298911EB94
:101BC000D07030830020DFF8189CD9F8004001E085
:101BD0002046E468002C1BD0F169A28B0B889A4246
:101BE000F6D1628B49888A42F2D16168DFF8F42B22
:101BF00012689142ECD121683A689142E8D10028FC
:101C000006D0E168C160D9F80000E060C9F8004082
:101C1000002C34D1DFF8D00B006800E0C068002849
:101C200000F0FD80F169828B0B889A42F6D1428BDD
:101C300049888A42F2D14168DFF8A82B12689142A4
:101C4000ECD101683A689142E8D100F073F9284676
:101C5000BDE8FE4300F0CBBE418BF3695B8899423F
:101C60000AD101683B68994200F0E180002800F049
:101C7000DE80002900F0DB800246C068D4E0F06915
:101C8000002C00F0AD80002171602989B181B56020
:101C900070610020F06270705FEA087003D5687BA5
:101CA00040F00100687304F164086FF00907D8F888
:101CB000100000280CD0204601F01DFBB84200F0B7
:101CC0008480D8F81000002802D0308B00287CD106
:101CD0003463204600F064F9B84276D0707801078A
:101CE00008D5D8F82420002A11D06FF00A01206905
:101CF00090470CE0C00613D5A07FC00607D4D8F8E3
:101D00002420002A03D06FF00B0120699047214660
:101D1000484601F002FC2146022001F077FC54E025
:101D20000020B8F80020002A08D0D8F81430002B82
:101D300002D0214620699847B84246D0F26A002A6C
:101D40001ED0A07FC00606D5104600F050FE2046EB
:101D500001F065F839E0D8F81850002D04D00023C0
:101D600021462069A84704E000232146184601F0D7
:101D70000BFBB84229D0002802D0F06AC8F8100046
:101D8000707880061CD5D8F81000002804D0417B5C
:101D900041F02001417313E0A08D40F66831884284
:101DA00001D0401CA085D8F81850002D05D0002384
:101DB0001A4621462069A84700E00020B84204D016
:101DC00000203063204601F076FF00203063F0628F
:101DD000B068002821D000F00AFE0020B0601CE0AE
:101DE000808900F000FF40070DD4F069018801915F
:101DF00040880090DFF8EC393A46706A318B411820
:101E0000B06A02F095F82846BDE8FE4300F0EFBD49
:101E10002846BDE8FE4300F0EABDBDE8F78304466E
:101E20000022DFF8C809006800287FF415AF0028F9
:101E30003FF425AF002A08D0C168D160DFF8AC19A3
:101E40000968C160DFF8A419086000F005F82846A9
:101E5000BDE8FE4300F0CBBD7CB50546DFF8FC686D
:101E60003078410710D4C10610D5F069018801917E
:101E700040880090DFF86C39DFF8E428706A318B15
:101E80004118B06A02F054F8002076BD8007FBD5F7
:101E9000687E01F0C3FA040002D14FF0FF3076BD36
:101EA000DFF8BC0800682060688B6083DFF83409C5
:101EB00000686060F0690188A18303212176716A5E
:101EC0004A1CA262226304F15402C3899381C0892F
:101ED000D0819089A4F84E00491E116028692061C4
:101EE00068696061287A00F08C002072DFF8F008E1
:101EF0000168E160046002F03AF90120DFF8F018AF
:101F00000870204600F02EFC211DE08E01F048FBF9
:101F1000E0861221204601F04FFE050005D0002189
:101F2000204600F037FF284676BD2046BDE87640C3
:101F300001F0C1BE30B583B0DFF8204821784A07F0
:101F400001D500203EBD8A0717D5656A826AAA1AA4
:101F500019D4818D521A002A15DCE069018801919B
:101F600040880090DFF87C38DFF8F427208B2918B0
:101F7000A06A01F0DDFF00203EBDC90703D5DFF8F0
:101F8000741809684162218B002907D0817F41F0D4
:101F900002018177BDE83E4001F08DBE00203EBDCC
:101FA000F0B583B0044600210D46DFF8B067307805
:101FB000420722D5207E022807D1B06A04F14802E8
:101FC000926890420AD1012108E0706AA26A821ADE
:101FD00004D4A08D121A002A00DC012100290AD0A5
:101FE000707840F008007070A07F00F0FE00A077CD
:101FF0006FF00A00FEBD2846FEBD80070AD5207E90
:10200000022807D0032805D0A07F40F00200A07767
:102010000846FEBDA07FC00603D4DFF8D8070068DD
:102020006062084684F89200204600F09BFB207E08
:10203000801E072800F24F81DFE810F008006F00D3
:10204000B300C100FB00B30018013D01307800F07F
:10205000120012284DD104F14807B86A0169486896
:1020600000F0D0FDB16A401C814242D1F88B401C87
:10207000F883706A421CA26222633960F169CA89DE
:102080003A83C9897983401EF86004202076211D97
:10209000E08E01F085FAE08600EB80014800F880D0
:1020A000E08EB988012900D14000B880388C401EEC
:1020B0003884B86A0168B96201F057F9B86A002833
:1020C00003D14FF0FF30A08603E02846A08684F8B5
:1020D0004600BB6B002B04D02A4621462069984756
:1020E000054615F10A0F3AD0A07F40F00200A07714
:1020F000F1E03078C00640F1EE80F069018801918E
:1021000040880090DFF8DC36DFF85426706A318BA7
:102110004118B06A01F00CFFDDE03078C10633D51C
:10212000B16A04F148052868081A401EE5D4A86879
:10213000091A0029E1DC042020766369002B04D011
:10214000002221462069984701E06FF00D00010050
:1021500008D010F10A0F02D0204600F060FE6FF0A8
:102160000900FEBDAF88204600F0CAF8A88B002801
:1021700001D0401EA883E08E012F00D14000A8802E
:102180007078800614D4A6E0800740F1A480706ABD
:10219000A16A491E884240F09E80204601F029FF36
:1021A00099E0204600F0ACF87078800640F193800A
:1021B000A07F40F00200A077072020768BE0204629
:1021C00000F09EF8307800F010007178890625D56F
:1021D00000281CD0B06A04F148018968884216D1F1
:1021E000A07F40F00200A077204601F075F9DFF8EB
:1021F000F0050068A0424DD0DFF8FC1508600868C3
:1022000000286DD0C068A04267D00860F7E7A07FC3
:1022100040F00200A077082020765CE000285AD029
:10222000B06A04F148018968884254D106202076BA
:1022300051E0204600F064F8707880064BD5A07F0E
:1022400040F00200A077204601F046F9DFF8900543
:102250000068A0421ED0DFF8A015086008680028BA
:102260003ED0C068A04238D00860F7E7204600F0B2
:1022700047F83078C0062ED5B06A04F14801896865
:10228000884228D1204601F027F9DFF8540500687C
:10229000A04205D1DFF848050168C96801601FE068
:1022A000DFF8541508600868002819D0C068A042FB
:1022B00013D00860F7E7204600F022F83078C00617
:1022C00009D5B06A04F148018968884203D1707861
:1022D00040F0100070700020FEBDE0680968C86022
:1022E0002846E0600120DFF8081508700A202076F3
:1022F000DFF8F4040168E160046001F038FFEAE708
:102300002DE9F04182B004460027DFF850542878C8
:10231000C00640F1098204F148063169B6F818C0D8
:1023200001EB0C02D6F80CE0AB6A686ABEEB000861
:1023300009D402D1B1EB030E05D4994225D1E96944
:10234000C9898C4521D2E969B1F80EC0A6F818C038
:10235000C989B6F81AC08C4500D27183F060336128
:1023600004F1900C9CF80100318B002908D1002861
:102370000BD138468CF8000001208CF8010004E0F5
:10238000002802D038468CF801003068181A01285D
:1023900073DA3846B083288B002826D13069318B18
:1023A0004018904221D1B4F9340000281DD430687F
:1023B00098421AD1012704F1420041794A1C134680
:1023C000DBB2994200D242714079042808DBB08820
:1023D000E18E09180A4692B2904206D2B18004E01A
:1023E000032802D1204601F02CFE002F03D100204B
:1023F00004F142014871706A002800F06E810169A1
:10240000486800F0FFFB8046706A0069808900F030
:10241000EAFB00F00300401E8041C043776AA96ACE
:10242000A1EB08083A89A8EB0208B8EBD07800F1D4
:102430005481B068091A012980F24F8138687062AE
:10244000002801D100207084786800F0F9FAB08B80
:10245000002808D03869808900F0C5FBC00702D584
:10246000B08B401EB083786800F0EAFA318C081A0D
:102470003084384600F079FFBDE777D4B068181A89
:10248000012873DAA07F410704D500F0FB00A07794
:10249000F088B08004F1420039460171B4F940106F
:1024A000B0F9002012EBE10141803168591AB18383
:1024B000F28B8918F183394641713360207E0428FC
:1024C0000ADBB088E18EF28890423FD209180A46B2
:1024D00092B2904200D2B180B06A002800F0F5803C
:1024E0000169486800F08EFB8046B06A0069808907
:1024F00000F079FB00F00300401E8041C043B76A42
:10250000398911EBD0708044A86AA8EB0008B8F1B3
:10251000010F80F2DA803868B062786800F090FAD3
:10252000B08B002808D03869808900F05CFBC007B8
:1025300002D5B08B401EB083786800F081FA318CF0
:10254000081A3084384600F010FFC5E7494391FB74
:10255000F0F109180A4692B2904200D21046B080BB
:10256000BAE70020A0860020E07744E73846B08331
:1025700041E7C91A028100234381006843898B42E5
:10258000F7DB494209B200F0F8F903E0494209B229
:1025900000F0F3F9A989A06A091A686A4118A981AB
:1025A000A06A68626969486005E0D21A03D5A07F15
:1025B00040F00200A077A16A6A6A531A71D4A08D14
:1025C0001B1A5B1C012B6CDA91426AD16869808905
:1025D00000F009FB00F00300401E8041C043A989C0
:1025E00011EBD0702883A18D80B2814230D268690E
:1025F000808900F0F8FAC0070ED56869808900F07C
:10260000F2FA00F03E0000F0E8FA6A6993894CF2B1
:10261000FF010B4018439081A08DA88168698089D3
:1026200000F0E1FA800702D5A889401EA881A98997
:10263000A86800F078F96869808900F0D4FA00F0A1
:102640000300401E8041C043A98911EBD07028834C
:10265000288B696A0918A162A18D081AA0852046F5
:1026600000F06DFCA9680889002802D0E96200200A
:10267000A8606869808900F0B6FAC00703D5687859
:1026800040F020006870A07FC10706D500F0FE0072
:10269000A07740F00200A07715E040F00100A0779D
:1026A00011E02046BDE8F64101F0E1BA696AA06A8E
:1026B000091A04D4A08D091A491C012903DBA07F43
:1026C00040F00200A077BDE8F381B06A00287FF4F3
:1026D00048AF4FF0FF30A08645E7A06B002823D01D
:1026E000E26BA96A521A1FD5B4F94010414A126828
:1026F000101A00B2A0EBE1004118A4F84010014606
:1027000009B2002900D5404204F14201B1F900208C
:102710008018A0EBA2000880B4F94020D21002FA81
:1027200080F048800020A063288B0028BED0217E46
:102730000729BBDA6A6AA36A991A4E1E3FF535AFBC
:10274000081A401C0128BFF630AFAA68104653890A
:102750008B42BFF61BAF1289521A0FE7D0EB002055
:1027600040EC002070B50546244EF06900F11404D9
:10277000808900F038FA000B062830DBF069808988
:1027800000F031FA000B411F890089B2002214E0E9
:102790004378042B23D1131D994220DB8378C07822
:1027A00040EA032040F2B553984201DA030001D118
:1027B00040F2B450E886121D92B28A420FDAA01895
:1027C0000378002B0BD0022BE2D005D340780028F1
:1027D00005D0121892B2F0E7521C92B2EDE770BD2C
:1027E000100000203CEC0020140000200C00002011
:1027F000000000200400002018000020D0EB002082
:10280000F8B50D461646032800F28B80DFE800F08D
:1028100002040608362704E0222702E00E2700E023
:1028200000273046032800F27C80DFE800F04D6C82
:102830006C02062000F0DAFE040072D00320207340
:1028400000202060E0191030C01C8008800060600B
:1028500025812E46F81C20F00300C0F5BE6086429C
:1028600006DB3D46ED1C4FF6FC700540C5F5BE6528
:1028700065810120E08125466089361A18E04FF411
:10288000BE610CE0032101730021417301602860E7
:102890000681314689B2B1F5BE6FF0DA3146418129
:1028A00000F1100141600121C1814189761A05467C
:1028B000012E22DB062000F099FE0028E2D12046FE
:1028C00000F095F80020F2BD07F113004FF6FC71FF
:1028D0000840EA1C0A40101880B201F0E1FC040034
:1028E0001FD0E0191030C01C800880006060258176
:1028F000284660810020206020730120E0810020B4
:1029000060732046F2BD052000F070FE040008D080
:1029100000206060258128466081002020602673A9
:10292000EBE70020F2BD38B504460D46208902468B
:10293000914221D2281A05E06D1AADB221894118C1
:10294000218124686189A942F6DB207B002809D116
:102950008D4207D06168091B691889B2204601F0D1
:1029600048FC04466581608920812068002801D0E8
:1029700000F03DF80020206031BD78B40A0001D09D
:10298000002801D1002030E00B0007D55C424289CD
:102990002546ADB2AA4203D2012026E00C46A4B2DD
:1029A000027B45682E46002A01D0032A09D15B42EA
:1029B000EA18426000F110039A420FD246600120EB
:1029C00013E0022A01D0012AE6D1002BE4D5428986
:1029D000A4B2A242E0D35B42EA18426042898A185C
:1029E0004281028989180181002072BC704738B584
:1029F000010001D1002032BD002404E0084601F0AE
:102A0000E1FB641C2946002917D0C889401EC881F3
:102A100080B200280FD10D68087B032803D106205F
:102A200000F0F4FDEDE7012801D00228E6D10520F1
:102A300000F0ECFDE5E70021E5E72046C0B232BD3D
:102A40000146002001E0401C09680029FBD1C0B20A
:102A50007047002802D0C189491CC18170470028F5
:102A60000BD0002901D17047104603890A89D31879
:102A70000268002A0381F7D1016070472DE9F04117
:102A800004460D4600263746002C47D0002D45D081
:102A900020892989884241D3B5F80A806089811B41
:102AA000A8EB0702914204DBA8EB07081FFA88F89D
:102AB00004E08046A8EB06081FFA88F842466868DA
:102AC000C11960683044FEF70FFC4644B6B2474473
:102AD000BFB26889874201DB00272D686089864282
:102AE00005D100262468002C01D1002D16D1002D1F
:102AF00006D068892989884202D12868002810D127
:102B0000002C06D060892189884202D120680028E3
:102B100007D1002DC0D10020BDE8F0816FF00D007D
:102B2000FAE76FF00500F7E72DE9F84304460F4692
:102B300091460025002C03D0002F01D02E4601D154
:102B400028462EE0484680B2002829D0002C27D005
:102B5000B4F80A80184680B2002818D1A8EB030800
:102B60001FFA88F81FFA89F9C14500DAC8464246BB
:102B700060689BB2C11830463844FEF7B5FB454447
:102B8000ADB24644B6B2A9EB0809002306E01846E8
:102B9000414680B28842E1D3A3EB08032468D1E721
:102BA0002846BDE8F2830000C24312D0002810D0AE
:102BB00091F82D2092070ED54A6890420BD0896873
:102BC00001EA00030A40934205D1C9430840884204
:102BD00001D101207047002070470146000A40EAF9
:102BE000012080B27047F8E70146080200F47F0038
:102BF00040EA01600A46120A02F47F42104340EAAA
:102C000011607047F0E7000080B500F049FBDFF885
:102C10006C090178491C0170C80702D5BDE8014064
:102C2000F6E101BD000000007CB50446227E0029CB
:102C300041D01046042801D007283CD1606F0028FD
:102C400004D1A08D40F66831884234D0A08B019029
:102C5000608B0090231D2246A16A206D01F068F967
:102C6000204600F039FCDFF818190869A04202D1AB
:102C7000C06808610AE0886100E08A61886900280C
:102C800004D0C268A242F8D1E268C2600020E060CD
:102C900001200870207E042807D10A202076486988
:102CA000E0604C6101F063FA03E02146022000F08D
:102CB000ADFC002076BD072A58D8DFE802F00423D7
:102CC0002F3F4757574F0025608B002814D0DFF85F
:102CD000B0188868A04202D1C06888600AE08861A4
:102CE00000E08A618869002804D0C268A242F8D155
:102CF000E168C1602846E0602146022000F086FCC1
:102D00002C4635E000252146DFF8780800F005FC68
:102D10002146032000F07AFC2C4629E00025DFF84C
:102D20006068214606F1100000F0F7FB01203070CA
:102D30002146022000F06AFC2C4619E0204600F0F3
:102D4000B0FC050014D10520207611E0204600F0EB
:102D5000A8FC05000CD10520207609E0204600F0F3
:102D6000A0FC050004D10920207601E000252C46B6
:102D7000002C04D0280002D1204600F09CFF2846F9
:102D800076BD017E012903D0817F41F0100181775A
:102D9000012149E72DE9FC4705460C46DFF8E0A78D
:102DA000287E0A280AD129460AF1140000F0B5FB52
:102DB00029460220BDE8FC4700F028BC2E6DAF6A12
:102DC000D5F88880D5F8109029460AF1100000F057
:102DD000A4FB01208AF80000286F002801D000F031
:102DE000BBFAE86E002801D000F0B6FA002C09D03A
:102DF000A88B0190688B00902B1D2A4639463046DF
:102E000001F096F82946022000F000FC4046002818
:102E100003D06FF009014846C047BDE8F3870121A0
:102E2000B8E770B505460C461346287E002802D048
:102E30006FF0050070BD180006D100F0BDF803006A
:102E400002D16FF0010070BD002600E0761C042E58
:102E500016DA0FF2887050F826000268002AF5D0C2
:102E6000508B1946884209D11168002918D0002CCE
:102E700016D02068002813D0814211D0D268EDE727
:102E8000002C03D02068002800D028606B83DFF876
:102E9000F0068168E960856001F069F9002070BD85
:102EA0006FF0070070BD6FF00900704770B5044601
:102EB000207E002808D1012801D1204670BD0320C2
:102EC00000F094FB050001D1002070BD206928614D
:102ED000608B688301202876607E6876207A28726D
:102EE00040F002002872A07AA872607A68722068A6
:102EF0002860DFF88C66608B002812D0B068A04292
:102F000002D1C068B0600AE0B06100E0B161B069B0
:102F1000002804D0C168A142F8D1E168C160002056
:102F2000E0602146022000F071FBDFF85C0668617A
:102F3000F068E860F56001F01AF9284670BD70B4D9
:102F400001468A8D8B6A9818CC8E40F2B555AC42FA
:102F500001DB40F2B4540D6B461B341B03D4CA850D
:102F6000096B401A08E0581B002802DD0020C885C4
:102F700001E0EB1ACB85002070BC704710B5044609
:102F8000A08D0918A18589B240F66930814202DB23
:102F900040F66830A0852046FFF7D1FF40F2DA21E5
:102FA000884208DBA07F40F00200A0772046BDE801
:102FB000104000F080BE10BD30B40021DFF8CC25F9
:102FC0001088431C13804FF6FF73984202D14FF4D0
:102FD000404010800023158810E0C06800280CD005
:102FE000448BAC42F9D1491C89B2B1F5804FE7DB83
:102FF000002000E0284630BC70475B1CDBB218465E
:103000000428F7DA0FF2D45454F820000068E5E7FA
:103010002DE9F04F83B0DFF868657068401C706080
:103020007078401C7070F8E02C46ED68002D00F0C0
:103030003281707895F821108142F5D085F8210011
:103040004FF0000A574605F14601087805F150088F
:1030500005F124092A7E022A01D1062801D00C2874
:1030600002D14FF0010A54E005F190025078002897
:1030700016D01078401C10700FF258515378194434
:1030800011F8011CC0B2884243D338461070507802
:10309000072801D2401C5070284601F019F838E08A
:1030A000B9F91000002802D4401CA9F81000D8F883
:1030B000200000282DD0B9F91000B9F92020904245
:1030C00027DB287E02280CD0B9F91C00B9F91E2094
:1030D00012EBE0000FF2EC420B78D2569040A9F8C8
:1030E00020003846A9F81000C888B8F8102090428F
:1030F00000D9104640080881B9F81220B0EB420F01
:1031000001DA52000A81B9F81200C880284600F09E
:1031100053FF287E06280AD1A97FC90607D5716802
:10312000D9F80020891A292901D30AF1010A297A3C
:1031300009072CD5042801D0072828D1D8F83C103D
:103140007268D9F80000101ADFF8442452184FF4BE
:10315000FA73B2FBF3F2824203D20AF1010A0127A9
:1031600015E005F1900B9BF80220DFF8283403FBF3
:1031700002114FF4FA72B1FBF2F1814207D22846F4
:1031800000F087FF9BF80200401C8BF80200287EAD
:10319000032807D17168D9F80020891A292901D399
:1031A0000AF1010A092807D17068D9F80010401AFD
:1031B000F12801D30AF1010A5FFA8AFABAF1000F85
:1031C0002ED0284600F088F9E868002C01D0E06095
:1031D00000E03061002F0BD0A88B0190688B00902D
:1031E0002B1D2A46D9F80410D8F8000000F0A0FEE4
:1031F000D8F83870D5F810802946ED68022000F024
:1032000005FA00203070380003D06FF00901404605
:10321000B847307800283FF409AF0024356905E746
:103220002C46ED68E07F401CE07794F82010C0B297
:103230008842FFF4FBAE0020E0773070D4F88420A1
:10324000002A02D021462069904731780029E4D134
:1032500000287FF4EBAE204600F02DFDE6E670611D
:103260002146E468022000F0D1F9002C16D000209D
:103270007168626A891AF12900D30120002807D0F9
:10328000204600F029F9E068002DE8D0E860E7E783
:103290002546E468E9E700257469E6E7BDE8F78FAD
:1032A00070B5B74D6878401C68702C6920E068786C
:1032B00094F8211081421BD084F82100A07FC1071F
:1032C00009D540F00200A077204600F0F4FCA07F72
:1032D00000F0FC00A077E668606F002807D00020AF
:1032E0002870204600F007F828780028DDD1344601
:1032F000002CDCD170BDF8B505466E6F777B0020E1
:103300006867EC6F002C03463246294602D02869D4
:10331000A04701E000F038F8010014D1B90619D532
:10332000A98D40F66832914201D0491CA985EC6F05
:10333000002C04D000231A4629462869A04710F122
:103340000A0F07D102E010F10A0F02D16FF0090055
:10335000F2BD6E670020F2BD10B5002803E00468DE
:1033600000F003F82000FAD110BD10B504000AD017
:103370006068002801D0FFF73AFB21460420BDE831
:10338000104000F043B910BD10B50846140007D036
:103390002189FFF7F3FD2046FFF729FB002010BD30
:1033A000002BFBD1BDE81040EBE4F0B47F230024F8
:1033B0002246734D296912E04E7E0746B4466745A2
:1033C0000CD31F46674509D3D5F804C04F6AACEB50
:1033D0000707A74202D33C460A463346C96800297C
:1033E000EAD1002A02D01046F0BC18E5F0BC7047C4
:1033F00030B400221046624B59695D6806E04C6AA1
:103400002C1B944201D322460846C9680029F6D1F4
:10341000002801D030BC02E530BC704738B5054605
:10342000022000F0E3F804000DD1FFF7E1FF0220D5
:1034300000F0DCF8040006D12846FFF7B6FF0220B2
:1034400000F0D4F80446002C3AD000229421204603
:1034500000F07CFF657604F1660041F2D0610180E6
:103460000021418004F1240540F6683028816881FC
:1034700008466072FF20A0724FF406706882062032
:1034800028840846A8830620E8834FF0FF3028826E
:103490000120288500F06BF86863E8626862A86321
:1034A000374841682960407884F821000020E0779F
:1034B00004F17C00384901603849016100218175BF
:1034C000204632BD4020A9E701617047C1677047BF
:1034D000816770474161704738B50446207E0028F7
:1034E0001AD00A2818D0012816D004F16C05A86853
:1034F000002803D0FFF77BFA0020A8604FF0FF30D0
:10350000A0862868FFF728FF6868FFF725FF0020DE
:1035100028606860A4F86A0031BD10B50C460168E7
:10352000A14202D1C96801600BE0154A916100E037
:1035300091619069002804D0C168A142F8D1E16886
:10354000C1600020E0602046FFF7C6FF207E0A2809
:103550000AD0012808D0A07FC10705D540F002009D
:10356000A077204600F0A7FB0020207610BD044A7B
:10357000D06951680818D061704700009BEC0020AA
:10358000000000200C000020A72E000848000020AA
:10359000B84C0A00F82401008933000800DD6D00F2
:1035A00010B50446084600F0EFFE002808D0808CD5
:1035B000002805D02838024692B2944200D9144619
:1035C000204610BD01020304050607070707070789
:1035D0000700000003060C18306078000C00002083
:1035E00008000020100000201400002081B00146D7
:1035F000072901DB002007E0094A52F821000028D2
:1036000002D0036842F8213001B07047002905D08C
:10361000034A52F820300B6042F820107047000037
:103620004C0000202DE9F04105460E4611461F468C
:1036300000228919143189B20120FFF7E1F8040052
:103640002CD0D4F80480688BFFF7C7FAA8F80000E4
:10365000A88BFFF7C2FAA8F80200C8F80470A86A9D
:10366000FFF7C2FAC8F80800F6B2B608761D3603AE
:1036700046F01006304680B2FFF7AFFAA8F80C000B
:10368000E88DFFF7AAFAA8F80E000020A8F81000AD
:10369000A8F81200A86AE98D401828632046BDE802
:1036A000F08138B50546EC6E002C18D000E00446D9
:1036B00020680028FBD120698089FFF794FA10F078
:1036C000070F0CD10120FFF788FA21698A8910437E
:1036D0008881A87F40F02000A877002032BD01211A
:1036E0002846BDE8344067E22DE9F04781468A4626
:1036F00017461E46089DE80702D54FF0040801E072
:103700004FF00008A80701D50C2000E000208044FD
:103710005FFA88F80420FFF769FF040004D15046DF
:10372000FFF765F900203EE0257300202060C4F813
:1037300004A0BAF80800A0EB0800208100206081F6
:1037400014215046FFF719F9002804D02046FFF74E
:103750000CFE002027E0606840682061B9F81A007C
:10376000FFF73BFA21690880B9F81C00FFF735FA2A
:10377000216948803046FFF737FA216948604046A2
:10378000401008EB90784FEAA80808F1050847EACE
:103790000837384680B2FFF720FA21698881002077
:1037A000216948822046BDE8F08770B50C461D4669
:1037B00023461646B1421CD2059989070CD4049EB3
:1037C000B17F490615D40699002905D0F16E00296C
:1037D00002D1316F00290CD004F2B75121F003015E
:1037E0008A4201DA134604E004F2B7534FF6FC7143
:1037F0000B4000221946FFF703F8002801D10020F2
:1038000070BD4189091B298004812146418170BD19
:10381000027E042A08D0072A06D0022A04D0032AEE
:1038200002D06FF00C0070470A0012D000F166025F
:1038300013888B4206D35188072903DC4FF6FD72AB
:10384000914206D3817F41F0800181774FF0FF30B4
:103850007047002070472DE9F04F8BB083469A46A1
:103860000024254626462746204607908046ADF888
:103870000C0006900BF162000890BBF86200400853
:10388000BBF83630834202D2ADF8103001E0ADF81B
:10389000100005910846002802D16FF00D001FE1CD
:1038A000914649465846FFF7B3FF010040F01881A2
:1038B0008DF80EA00BF16200B0F806A0DBF86C00EA
:1038C000002800F08180054600E0054628680028B1
:1038D000FBD1287BC10701D5042200E022468007E6
:1038E00001D50C2000E020468218BDF81010288970
:1038F000091A8A1A0BF162000089ADF80C00002841
:1039000012D02E464946884201D2069001E0CDF8F9
:10391000189006A8B0F80080BDF80C100698091A97
:10392000ADF80C100698121A494688454CDA104634
:1039300080B2002848D02889002845D092B2A1EB57
:1039400008018A4202DAADF8122003E0A9EB080070
:10395000ADF812002E469DF80E00C0071DD50120BF
:1039600002909DF80E000190CDF800B003ABBDF8B9
:1039700012100320FFF719FF040000F09F806989EF
:10398000BDF80C0041186981BDF81220059800EBC4
:1039900008016068FDF7A8FC0BE00122BDF81210D9
:1039A0000320FEF72DFF040000F0888005984044B6
:1039B0006060BDF8120080441FFA88F82046FFF7C7
:1039C0003FF882441FFA8AFAADF812903046099700
:1039D000079E2BE00999086024E00099FFF73FF863
:1039E0003846FFF72DF882441FFA8AFABAF1080F19
:1039F00000F3DD804FF6FD70824580F0D880002016
:103A00000090DBF85C304344024639465846FFF7E5
:103A10006BFE002800F0C980BDF80C104181002E1B
:103A2000D8D106460990C8441FFA88F8BDF812108C
:103A3000884580F2AB800846A0EB0800BDF81090E6
:103A4000014689B2894500D989469DF80E00C00714
:103A50001CD5002E01D1012000E0002002909DF82D
:103A60000E000190CDF800B003ABBDF81020494620
:103A70000020FFF79AFE070000F097804A4605985D
:103A800000EB08017868FDF72FFCA9E70122494601
:103A90000020FEF7B5FE0090002800F08680059813
:103AA000404400994860002211460846FEF7A8FEEF
:103AB000070092D107960098FEF799FF9BF81E0029
:103AC00040F080008BF81E00002C02D02046FEF74C
:103AD0008EFF0798002801D0FFF73EFC4FF0FF3023
:103AE0000BB0BDE8F08F3089584430813068002831
:103AF00009D15A460599706873891844FDF7F4FB9B
:103B00007089584470813668002EECD12889584459
:103B100028816889A0EB0B0BA5F80AB0BDF80C0052
:103B200008990881002C07D021466868FEF797FFA6
:103B30002989208941182981002D03D10098C0F8D6
:103B40006C9001E0C5F800900098C06DBDF81210AF
:103B500040180099C86508988188BDF81200091AB4
:103B6000089881800898A0F806A0002F0CD038692A
:103B7000002809D05FEA887006D40820FFF72DF8E6
:103B800039698A89104388810020A9E7CDF800B0FF
:103B900005999DF80E800746B14606980028BDD0CD
:103BA0006E680591DDF818B0AEE7079686E70796D0
:103BB0003846FEF71CFF81E7F8B504460E4600279D
:103BC00004F166056888082827DA4FF6FD718842F7
:103BD00023D2B00700D50127F80701D5042100E062
:103BE0000021B80701D50C2000E0002041182888EA
:103BF000002802D14FF0FF30F2BD0022C9B21046BA
:103C0000FEF7FEFD002808D00097E36D324601461E
:103C10002046FFF769FD010006D1A07F40F080003B
:103C2000A0774FF0FF30F2BDE26E002A02D1E166CC
:103C300004E0024610680028FBD111600020A88033
:103C400016F0030F05D0E06D401CE0652888401E8B
:103C50002880F00703D5A07F40F02000A0774868B7
:103C6000FEF7EEFE6988081868800020F2BD30B5C6
:103C700083B00546286DFEF7B7FF034600221146C4
:103C80002846FFF7CFFC040002D16FF001003EBDD3
:103C9000A87F00F0FC00A87706200190687A0090C9
:103CA000AB7A2A1D2946204600F080FC2046FEF70C
:103CB0009EFE00203EBD2DE9F04782B006469A48A0
:103CC0000068B04201D10020CAE006F14C07B88A72
:103CD000B7F80080404500D280463C6AB07F80073C
:103CE0000FD5002C09D021694868FEF78BFFB16C15
:103CF000401A21894018804503D23046BDE8F64776
:103D0000B5E77D6A002D04D000E00546286800284C
:103D1000FBD1002C00F09A8021694868FEF772FF01
:103D2000B16C401A218940188045C0F08F8020690D
:103D30008089FEF758FF786A002813D0B07F10F012
:103D4000440F0FD1396A002906D00868002809D12C
:103D50000889F18E884205D2788B002802D0B88B72
:103D6000082801DB012000E00020002803D1B07FFB
:103D700010F0A00F6AD020683862307E02280AD086
:103D80001020FEF72AFF21698A8910438881B07FBD
:103D900000F0FC00B0773146204600F069F8216958
:103DA0004868FEF72FFF814620698089FEF71BFFD8
:103DB00000F00300401E8041C043218911EBD07008
:103DC00081447868B0EB090001D5C7F804902069F8
:103DD0008089FEF708FF00F00300401E8041C043C9
:103DE000218911EBD07000282BDD00202060786A3B
:103DF000002802D17C62254626E021694868FEF74A
:103E000001FF814629694868FEF7FCFEB9EB00090D
:103E100014D506F17009D9F80000002822D00169F4
:103E20004868FEF7EFFE824621694868FEF7EAFE21
:103E3000BAEB000A16D5D9F80090ECE72C602546BD
:103E400002E02046FFF791FA3C6A62E7386A0028F0
:103E500001D10020F883B07F00F07F00B077002010
:103E6000BDE8F687D9F800002060C9F80040EBE70C
:103E70007CB505460C46A06AFEF7B6FE2969886047
:103E8000E08DFEF7AAFE2969C881A06AE18D40187D
:103E90002063286900F11406287BC00709D5211D7D
:103EA00040F2B450FFF77CFB40F00170FEF79CFE3F
:103EB0003060B4F9340010F1010F01D10020A08668
:103EC000002C02D02068002806D1201D00F05CFAEA
:103ED000002828D040682060A06B002807D1134834
:103EE0000068A06329694868FEF78CFEE063686893
:103EF0002A694168511A89B24289521A4281686816
:103F00000289511A0181286969684860002029697D
:103F1000088206200190607A0090A37A221D214633
:103F2000686800F043FB73BD00EC00200400002033
:103F30002DE9FC4707460E4691469846002214217B
:103F40000120FEF75DFC040034D00B9D0A98D4F8E4
:103F500004A0FEF742FEAAF800002846FEF73DFE48
:103F6000AAF802003846FEF73FFECAF804003046C1
:103F7000FEF73AFECAF8080045F21400FEF72DFEDF
:103F8000AAF80C0046F60B00AAF80E000020AAF8CA
:103F90001000AAF812000620019000200090FF23D4
:103FA00042464946204600F001FB2046BDE8F64760
:103FB000FEF71DBDBDE8F38700F138039A6B002AB8
:103FC00001D170470A4611680029FBD1596B116075
:103FD000596B002901D151895986996B5963002188
:103FE0009963997BFF2901D0491C997300211960BD
:103FF00061E6F8B500F13806B46B002C20D02168DA
:10400000B16300F16C05286800280CD0016948688C
:10401000FEF7F8FD074621694868FEF7F3FD3F1AF1
:1040200001D52D68EFE7286820602C602068002803
:1040300001D100207086B07B401CB073002030603E
:10404000F1BD38B5044604F14C05686A00281FD05C
:10405000A07F40071CD42046FFF7CBFFA88A298801
:10406000884202D24008688001E049086980E08EF9
:104070006988B1EB400F01DA400068806888E18E02
:1040800001EB410108182880A07F40F00400A077D0
:1040900031BD30B583B00546286D401EFEF7A4FD46
:1040A0000346002211462846FFF7BCFA04000ED052
:1040B0000620019000200090AB7A2A1D2946204658
:1040C00000F074FA2046BDE83E40FEF790BC37BDD4
:1040D0002DE9FC410646346F002C00D1F46E002C13
:1040E00043D020698089FEF77EFDC00707D520896F
:1040F000B0F1010868EB08084FEAD87801E04FF00A
:10410000000840460246521E9241D20F2069436881
:1041100000213046FFF786FA050026D06F68B8F117
:10412000000F09D01120FEF758FDBA894CF2FF01AB
:104130000A401043B88109E06068038921895B1A4D
:104140009BB2012207F11401FEF7EEFC062001905C
:1041500000200090B37A321D3146284600F026FA3E
:104160002846BDE8F641FEF742BCBDE8F381704742
:1041700038B4754A136801885C18A0420FD02179C1
:1041800000290CD151688C4209D09168A14200D11C
:10419000906021880180C11A9D1C24882953418880
:1041A0005C1884420CD02179002909D191688142A0
:1041B00000D1946001882180E41A991C00880C5277
:1041C00031BC704782B0002811D001465E4A1368A6
:1041D00099420CD35368994209D2002100F8041C7B
:1041E00008389168884200D2906002B0C0E702B0FF
:1041F0007047F8B50A46D21C4FF6FC710A400C2AEB
:1042000000DA0C221146B1F5205F13DC4E4B1C681E
:104210000546A54243D35E68B54240D2A0F10805E9
:104220002D1B30F8086C771BA7F1080C1FFA8CFCCB
:104230008C4501DA0020F2BD614530D004EB060E5A
:1042400056190836B6B2A7199EF80410002910D1E5
:10425000BEF800109A68724500D19F6000223A7142
:1042600039807D8020F8086C3988B1F5205F13D142
:10427000F2BD1432944512D399688F4200D29F60E8
:104280000021397130F8081C39807D8020F8086CD5
:104290003988B1F5205F02D0A11C3A888E52F2BD58
:1042A000F8B4010048D0C91C4FF6FC7001400C293D
:1042B00000DA0C210E46B6F5205F3DDC224B9C68EF
:1042C0001D68621B92B28C4600E03A46C6F520504B
:1042D000824231DAAF5A281D805C0028F5D1B81A25
:1042E00008386045F1D30CF1140C604515D38918DA
:1042F000083189B200202E1D70546818AE5A06800D
:10430000AE1C7252A95201262F1DBE540088B0F572
:10431000205F05D0AE1C315202E00120291D8854D7
:10432000A918A1420CD12079002808D058688442ED
:1043300005D020882C18F6E70020F2BC70479C605E
:1043400001F10800F9E70000A48D002062F30F22BC
:1043500062F31F4200B500BF130096469446103921
:1043600028BFA0E80C50FAD85FEA417C28BF0CC0F7
:1043700048BF40F8042BC90728BF20F8022B48BFCC
:1043800000F8012B00BD000010B40146834800680E
:1043900000E0006800280CD090F82D20D207F8D556
:1043A00082680B681340446822409342F1D110BCEC
:1043B00070477B480068002803D090F82D10C9078B
:1043C000F5D40020F3E72DE9F843064689467768DF
:1043D0003C782046000904284DD104F00F04788869
:1043E000FEF701FC7189B1EB840F44D33189024699
:1043F000914240D301463046FEF795FA3869DFF81E
:10440000A481C8F80C00F868C8F8080001254C46DB
:1044100094F82D00C0070ED5201D0CD06068002830
:1044200009D0D8F80C20824211D021461046FEF760
:10443000BBFB00280BD1002D03D000255748046892
:1044400000E024684C4500D12468002CE0D14946A6
:10445000D8F80800FEF7A8FB00280CD198F808004F
:1044600000F0F000E02806D0002C04D0F8884FF6C9
:104470003F71084204D03046FEF7B9FA00203CE014
:10448000C8F80090C8F804704946304600F0A8F813
:10449000002829D1787A01280DD0062806D01128C5
:1044A00049460DD1304600F0D9F81DE04946304666
:1044B000FDF71EFB18E04946304600F091F913E085
:1044C000D8F80C00FEF770FB00280AD198F80C0011
:1044D00000F0F000E02804D077600221304600F0C0
:1044E00009FA3046FEF783FA0020C8F80000C8F841
:1044F0000400C8F80800C8F80C00BDE8F2832DE9F4
:10450000F84306460D46140099460A9F3BD01421F5
:10451000FEF733FA002802D06FF001003CE0099862
:104520000899D6F8048088F8089088F8090020686F
:10453000C8F81000452088F8000088F8011030897C
:10454000FEF74BFBA8F802000020A8F80600DFF8F1
:104550005890B9F80000FEF740FBA8F80400B9F83D
:104560000000401CA9F80000002D02D02868002897
:1045700003D17868C8F80C0001E0C8F80C000020EE
:10458000A8F80A0003E07168086900906C462246AA
:10459000314638467B699847BDE8F28364EC0020D9
:1045A00068EC002034EC002098EC0020FEB50446B6
:1045B0000D4616461F463046FFF7E6FE002802D19C
:1045C0006FF00300FEBD0999089A029001910092D4
:1045D0003B46324629462046FFF791FFFEBD0000CC
:1045E0002DE9F04707464FF00008786890F809A0D9
:1045F0004446DFF85C90D9F800504046002824D1AA
:10460000002D22D0287C50451CD12868002803D0DA
:1046100010490968884215D16E69002E12D00E4BE0
:104620003A462946A869B04700280BD000274FF02A
:104630000108002C06D0E868E060D9F80000E860C6
:10464000C9F800502C46ED68D7E7BDE8F0870000B8
:104650008CEC002040EC00203CEC00202DE9F84FD1
:104660000646894670680090017830898A0002F019
:104670003C020832904209DB890001F03C014942CA
:1046800009B23046FEF779F9002804D03046BDE87B
:10469000F24FFEF7ACB97468DFF83C7149463868F0
:1046A000FEF782FA05462088FEF79DFA804660886C
:1046B000FEF799FA864600231A46DFF818C1DCF89F
:1046C00004402846D9F808B0002C60D00025618A43
:1046D000714519D12168002801D100290DD0D7F8E2
:1046E00000A0514509D000280ED0002905D00BEAC2
:1046F00001010BEA0A0A514506D10125002A03D11E
:10470000217C490700D42246002D0BD0A18A4145C7
:1047100008D1211D3DD0616800293AD02F4D2D6868
:10472000A94236D02346E468CEE7002C0FD0A56915
:10473000002D07D0CDF80080284B32462146E06995
:10474000A84722E03046BDE8F24FFEF750B9002DF1
:1047500011D1387800F0F000E0280CD000980178F2
:10476000890001F03C0108313046FEF706F90321CB
:10477000304600F0BFF83046BDE8F24FFEF737B9DB
:104780003046BDE8F24FFEF732B9BDE8F18F05467D
:1047900009E00546002B06D0E068D860DCF804008C
:1047A000E060CCF80440002C00D11446002C04D169
:1047B000D9F8040039688842E2D16FF00701304629
:1047C000FEF7DBF80028B0D03046BDE8F24FFEF728
:1047D0000EB900003800002040EC00203CEC002026
:1047E0002DE9F04784B005460E466F6897F80080C3
:1047F0004FEA880808F03C08C8F10009494609B2A8
:10480000FEF7BBF800286BD12889042868D36868B4
:104810000078082864D10124DFF8D0A0DAF800007D
:1048200000F0F001E02900D100243146FEF7BCF988
:10483000002800D00024002C52D0288908284FD30B
:10484000284600F0C2F800284AD122212846FEF767
:1048500094F800281ED041462846FEF78EF800281E
:104860003ED1002229890220FDF7CAFF040037D07B
:104870002946FEF703F9002832D16768494609B294
:104880002046FEF77AF800282AD12846FEF7AFF82E
:10489000254606E06FF021012846FEF76EF8002855
:1048A0001ED16868DAF80010F960114909683961A9
:1048B000002101704180FF2038720846788141460E
:1048C0002846FEF75AF800280AD1029601200190E6
:1048D00000200090FF23024651462846FFF70FFEB6
:1048E000284604B0BDE8F047FEF781B840EC002050
:1048F0003CEC00200A4603212DE9FE43074688468A
:104900009146002224210120FDF77AFF040024D0E3
:104910007D68666886F8008086F801900020B08087
:10492000F0801C22796860680830FCF7DDFC00200C
:1049300070806189304600F042F87080E86802902B
:104940000120019000200090FF2302AA014620468A
:10495000FFF72CFE2046FEF74AF8BDE8F78318B4AF
:104960000022ADF80020134610F001020BD0002900
:1049700009DD10F8014B8DF80140491E03E030F8C5
:10498000024B1B19891E0129F9DC002902DD007880
:104990008DF80000BDF80000181881B201EB10413D
:1049A00088B200EB1140002A06D0020202F47F42D6
:1049B000C0F307211046084380B212BC704780B58F
:1049C000FFF7CDFFC04380B202BD70B5044600259D
:1049D0002E4619E061896068FFF7C1FF2818054677
:1049E000ADB205EB1045608900EBD0714910B0EB1A
:1049F000410008D0C6F10106280200F47F40C5F34B
:104A0000072105460D432468002CE3D1F6B2002EA1
:104A100006D0290201F47F41C5F307200D46054366
:104A2000ED43284680B270BD01B481B000200090F3
:104A30000198009002E00098401E00900098002825
:104A4000F9D102B0704780B501214FF0007000F03D
:104A500084FC00214FF00070BDE8044000F07DBCF4
:104A600001210160002141608160C16001614FF45A
:104A70008041416100218161C1614FF400610162A7
:104A8000002141628162C162016341638163C1634C
:104A9000402101642021416400218164C1640165D9
:104AA00041658165C165016680214166002181669D
:104AB000C166016741678167C1674FF08061C0F8D7
:104AC000801084304FF000710160002242604FF48A
:104AD000001282600022C260026142618261C26192
:104AE00001624FF4803141624FF4800181624FF4E2
:104AF0000051C1621146016341637047F0B587B050
:104B000004460E4600200090009001200190DFF83E
:104B1000F0562F6927F01C0702A800F0AFFB03999D
:104B2000DFF8E0064018DFF8E026904202D247F0B6
:104B300008071CE0DFF8D4064018DFF8D4269042BE
:104B400002D247F00C0712E0DFF8C8064018DFF881
:104B5000C82690420BD3DFF8C4064118DFF8C00620
:104B6000814202D247F0040701E047F010072F61AD
:104B70004FF400420021304600F01DFB002832D0E7
:104B8000DFF8A006FFF750FF2068002845D0009806
:104B9000401C0090DFF890760121304600F0E6FAE4
:104BA000400702D40098B842F1D30098B8421AD016
:104BB000002000904FF480520146304600F0FBFA8E
:104BC000002801D1002001900098401C0090012194
:104BD000304600F0CBFA800602D40098B842F3D3F6
:104BE0000098B84202D10020019028E000200090F7
:104BF0000A21304600F0BAFA410703D54FF40061AC
:104C0000216201E000212162800702D5002060615D
:104C100015E04FF48040606111E0206A626952083B
:104C200042EAD00292B20021304600F0C4FA0028D5
:104C300001D1002001906FF07F40FFF7F5FE019851
:104C4000002805D14FF4006020624FF4804060617D
:104C50002968DFF8D805014060680143A068014376
:104C6000E06801432069014360690143A069014391
:104C7000E0690143206A0143606A0143A06A01437D
:104C8000E06A0143206B0143606B014329602F6898
:104C90004FF6FF763046FFF7C7FE2F60A16BE06B43
:104CA0000143206C0143606C0143A06C0143E06C44
:104CB0000143206D0143606D014369606F683046B8
:104CC000FFF7B2FE6F60A06DA860E06DE860A969B3
:104CD0004FF641700140206E41EA0041606E014391
:104CE000A06E0143E06E0143206F0143606F0143FA
:104CF000A961AF693046FFF797FEAF61A16FE06F22
:104D00000143E961EF693046FFF78EFEEF61DFF89E
:104D10002055A96904F18407DFF818050140D4F88B
:104D2000800001433868014378680143B868014353
:104D3000F86801433869014378690143B869014360
:104D4000F8690143A961AC693046FFF76DFEAC61BB
:104D5000396A786A0143B86A0143F86A0143386BDB
:104D600041EA8001786B014341F4000129602C681D
:104D70003046FFF759FE2C60286840F0800028601C
:104D80002C683046FFF750FE2C600198012801D1B5
:104D9000012000E0002007B0F0BD80B5012000F048
:104DA0000CF8012000F022F800F0B3F9012000F027
:104DB000C3F90120BDE80240CBE110B582B000216B
:104DC0000091DFF83C440028206803D040F0080040
:104DD000206002E020F008002060206800904FF67C
:104DE000FF70FFF721FE0098206013BD10B582B060
:104DF00000210091DFF808440028206803D040F02B
:104E00000400206002E020F0040020602068009090
:104E10004FF6FF70FFF708FE0098206013BD4A7937
:104E20000B7943EA0223DFF8102412181360CA78C2
:104E30008B781B0443EA02634A7843EA0223097829
:104E40000B43DFF8F8130818036070471FB401A97B
:104E500000221346144681E81C0011460091DFF839
:104E6000E01307E04B681A6001224B689A600A68F9
:104E7000D2680A600A681368002B25D4009B042BB3
:104E800022D2009B5B1C009313689B0502D513681C
:104E9000DB05E7D51368DB051DD413689B051AD421
:104EA0004A6893685B1C93600A68D2680A60E1E70D
:104EB000946802941B680393D2680A6001A991E880
:104EC0001C0080E81C0004E001A991E81C0080E8B7
:104ED0001C001FBC70474B685A604A6893685B1C93
:104EE00093604A689368012B01D10B6813600A68CC
:104EF0001368C3F30D431B1F01934B689C68012C7F
:104F0000D6D91C68A4680294D4E7F0B40146002006
:104F1000DFF830331C682268002A47D40A4640F282
:104F2000F455AA4208DD2E4692FBF6F605FB162242
:104F3000002A02D0761C00E00126012E29D120682B
:104F400040F040502060C1F30C016160206840F0E7
:104F500000402060E4681EE0226822F04052226097
:104F6000002803D1226842F0805222606560721EE0
:104F7000904208D1276847F00057276005FB1212BE
:104F8000C2F30C026260226842F000422260E468D0
:104F9000401CB042E0D31C60DFF8AC020169490755
:104FA00003D504210161002101600120F0BC70479C
:104FB00070B40024DFF888321860944216D200EBF7
:104FC00044154FF000462E6044F2F4566E6040F2F5
:104FD000F45666430E44AE60561EB44201D3E860F8
:104FE00002E005F12006EE60641CE6E7DFF85C12E3
:104FF000086003F10800586070BC7047DFF8400299
:1050000001680A68002A11D40A68D2050ED54168E1
:105010008A68521C8A6041688A68012A01D1026844
:105020000A60016840684160012070470A68002AF0
:1050300011D40A6892050ED50A68D2050BD44268CD
:10504000116000214268516001214268916001684D
:10505000C96801600FE00A68002A0CD40A6892054A
:1050600009D40968C90506D441688A68521C8A6057
:105070000168C96801600020704730B40023DFF880
:10508000C4412060934213D200EB43144FF48015C7
:10509000256040F2F4555D430D44A560551EAB42BA
:1050A00001D3E06002E004F12005E5605B1CE9E764
:1050B000DFF89C11086030BC704702681143016042
:1050C00070474268002903D022F0004242607047D6
:1050D00042F0004242607047DFF85401016841F03D
:1050E000010101607047DFF84801006800F001002D
:1050F0007047DFF864210029116802D0084310606E
:10510000704721EA000010607047DFF8481108601E
:10511000704710B582B000200090DFF84041206851
:1051200040F480102060206800904FF6FF70FFF779
:105130007BFC0098206013BDDFF820110028086870
:1051400003D040F400500860704720F4005008601D
:105150007047DFF808110028086803D040F002000B
:105160000860704720F002000860704781B000229C
:1051700000923B4A136803F01C03C00200F478401D
:105180001843890101F4F861084340F00100106000
:1051900025490098401C00901068C00702D500986F
:1051A0008842F6D30098884201D1002001E050687F
:1051B00080B201B0704718B400230093284B1C68DC
:1051C0005A6004F01C04C00200F4784020438901B6
:1051D00001F4F861084340F0030018601249009898
:1051E000401C00901868C00702D500988842F6D38A
:1051F0000098884201D1002000E0012012BC7047D5
:105200000080024000D3CEFEC0E1E40040F1E9FDA1
:1052100040787D0100796CFC005A6202001F0AFA96
:1052200080F0FA02FFFF0F00FFFF04000F8120FF54
:1052300000900240233FDEF840800240448002405C
:1052400020EC002090EC0020049002400C900240E2
:1052500010900240149002401C90024018900240AE
:1052600010800240DFF8501100220A7001280A70F5
:1052700002D0042801D105200870704710B44F4AAD
:10528000516801F00C01042902D0082902D019E06C
:105290004C4918E011681368C1F38051002903F0EC
:1052A0003F0314BF47494849B1FBF3F31168C1F309
:1052B00088114B431168C1F30141491C4900B3FBFC
:1052C000F1F100E040490160404B51680468C1F3CE
:1052D0000311595CCC40446051684468C1F3822199
:1052E000595CCC40846051684268C1F34231595CDA
:1052F000CA40C26010BC704700F44072B2F5407FF3
:105300002F4906D10A68324B22F4F81203401A439F
:105310000A60C0F30B008A6E1043886670472D49FF
:10532000086070472C4A0029116814BF084321EA1D
:10533000000010607047294A0029116814BF084313
:1053400021EA000010607047254A0029116814BF47
:10535000084321EA000010607047224A00291168C2
:1053600014BF084321EA0000106070471E4A00295C
:10537000116814BF084321EA0000106070471B4AFF
:105380000029116814BF084321EA0000106070472B
:1053900001464009074A012808BF106803D00228C7
:1053A0000CBF106F506F01F01F01C84000F00100EA
:1053B0007047000000380240703802400438024054
:1053C0000838024040787D010024F40020000020CD
:1053D000FFFCFF0F3C0E474230380240403802408D
:1053E000443802401038024020380240243802403D
:1053F00010B582B0DFF8881500EB800211EB820453
:105400002068002803D0FDF7F2FA00202060002079
:10541000A074E074A060606004F10C000621BDE897
:105420001C4000F06DBB10B500240A2C1FDADFF819
:10543000500504EB840100EB8101887C002814D026
:10544000C87C401CC874C0B2F0280BDA887C0128E4
:1054500005D0887C032808D10220887405E0C87C28
:105460000128F6DD2046FFF7C3FF641CDDE710BD11
:105470002DE9F84F02464FF00A08C146C446002401
:105480002546C6462646234613E010DDF87C07462F
:10549000AA4657450BD399464FFA89F9054606E0C7
:1054A000A246574503D398464FFA88F804465B1C3A
:1054B000DBB20A2B55DA1420DFF8C47410FB03F0BA
:1054C0000744B87CBCF10A0F05D1002803D19C46E3
:1054D0004FFA8CFCEBE70028E9D0002A05D0D2F87F
:1054E00000A0D7F804B0DA450ED00128CDD1386835
:1054F0000028F87C0746D3D0B2465745D7D39E46FE
:105500004FFA8EFE0646D2E7184640B217E04846EC
:105510000A2816DA5FFA89F9C8464046FFF768FF9D
:10552000142010FB08F0DFF85814002C02D0226879
:105530000B1D1A50002213310A54404640B2BDE8F8
:10554000F28F40460A2802DA5FFA88F8E5E77046EB
:105550000A2803DA5FFA8EFEF046DEE74FF0FF30EE
:10556000EDE714468807F9D4BCF10A0F01D1C8074A
:10557000F4D5BCF10A0FCADA5FFA8CFCE046CFE73B
:10558000F8B504460D46164619466F680622384699
:10559000FBF7AAFE06223146B81DFBF7A5FE082040
:1055A000B88129462046A269BDE8F8401047F8B501
:1055B00006460C4615461F46002C0CD020680028D5
:1055C00009D03146FDF7F0FA002804D1207800F028
:1055D000F000E02802D16FF00D00F2BD3946204600
:1055E000FFF746FF00281FD4DFF8941300EB80027A
:1055F00011EB82070220B874BE600622294607F12B
:105600000C00FBF771FE0020F8743C68002C0AD0F7
:1056100038602B4606F1270221463046FFF7B0FFDF
:105620002046FDF7E4F90020F2BD2DE9FC410446D7
:105630000D461646002C6FD070892A2869DB7768E2
:10564000F889B0F5807F64D1B87C062861D1F87CF8
:1056500004285ED1388A08285BD1042207F11C0196
:1056600001A8FBF741FE042207F126016846FBF77B
:105670003BFE201D02D06068002802D14FF00008D8
:1056800007E00099814202D14FF0010801E04FF09C
:1056900000084046002801D0012300E0022307F162
:1056A000160201A92046FFF782FFB88AB0F5807F75
:1056B0002FD1B8F1000F2CD00220FDF78EFAB8825E
:1056C000042207F11C0107F12600FBF70DFE04225E
:1056D000211D07F11C00FBF707FE062207F116014A
:1056E00007F12000FBF700FE062207F116013846FD
:1056F000FBF7FAFD0622294607F11600FBF7F4FD39
:1057000006222946B81DFBF7EFFD31462046A26967
:1057100090473046FDF76BF9BDE8F38170B582B074
:1057200004460D46964802EB820110EB8106B07CE0
:1057300002280AD1F07CE42807DB311D204600F066
:1057400077F9002801D10320B07406F10C0304F1AD
:1057500027022946204602B0BDE8704010E7F0B5A8
:1057600083B006460D4617463C460E212846FDF7F7
:1057700004F9002802D06FF00100FEBD3146386800
:10578000FDF712FA002808D00FF2643306F1270261
:1057900029463046FFF7F4FEFEBD386800F0F00100
:1057A000E02915D101208DF8000000208DF80100BE
:1057B0005E208DF80200787800F07F008DF80300FD
:1057C000B8788DF80400F8788DF805006B46DDE7B1
:1057D000B16801EA0002736819408A420CD080B2B5
:1057E0004FF6A961884207D016F10C001ED0F06870
:1057F00000281BD006F10C0462480278142111FB2A
:1058000002F75F4B03F1120C1CF807C0BCF1020F4A
:105810000FDBD4F800C003F1040E5EF80770BC453E
:1058200007D129463046FFF779FFFEBD6FF0030030
:10583000FEBD002201E0521C52B20A2A17DA11FB07
:1058400002F703F1120C1CF807C0BCF1020FF2DBE7
:10585000D4F800C003F1040E5EF80770BC45EAD12D
:105860000270D2B229463046FFF758FFFEBD2A46E5
:105870002146304600F001F8FEBD2DE9F84F804684
:105880000D4614464FF0FF37B94641462868FDF7EC
:105890008BF9002808D1286800F0F001E02903D036
:1058A000002D01D0002802D16FF00D0066E001212B
:1058B0002846FFF7DDFD8246BAF1000F5ED40AEB01
:1058C0008A00800000902E4E0AEB8A0006EB800BC7
:1058D0009BF81200002802D101208BF812009BF8DF
:1058E0001200012801D0002C06D12946404600F0C4
:1058F0009FF88146002C40D09BF8120001280CDD57
:10590000204880F800A00BF10C0308F12702214683
:105910004046FFF735FE81462FE02ED1002120467C
:1059200000E00068002803D0027B012AF9D00121A1
:10593000002910D0002201890320FCF761FF050037
:105940000DD02146FDF79AF8002808D02846FDF72B
:105950004EF8002503E025462846FDF77AF8002D8D
:105960000AD000983058002801D0FDF740F8009880
:1059700035504FF0000900E0B9464846BDE8F28FC7
:105980009CE900209AEC00202DE9F84F05460E46D0
:1059900093469A4600222A210320FCF731FF040097
:1059A00002D14FF0FF3041E00D980C9FDDF82C80C4
:1059B000DDF8289000966668FDF70FF9B0820622A0
:1059C000514606F11600FBF78FFC0622414606F110
:1059D0002000FBF789FC062259463046FBF784FC81
:1059E00006220099B01DFBF77FFC0422494606F110
:1059F0001C00FBF779FC0422394606F12600FBF770
:105A000073FC4FF48070F081082030820620B0745F
:105A10000420F0744FF4C160B08121462846AA6981
:105A2000904705462046FCF7E2FF2846BDE8F28F86
:105A300000B585B00122039202910FF2BC010191E1
:105A4000011D009100F127030FF2A40200F12701CC
:105A5000FFF79AFF05B000BD70B504460D4660899A
:105A60000F283FDB63689E891878C10718D5012885
:105A70000AD15878002813D198785E2810D1607B1D
:105A800040F0100060730BE006220FF2640118462C
:105A900000F03AF8002803D1607B40F00800607302
:105AA000082E03D0B6F5C16F10D01BE095F82D007D
:105AB000800617D56FF00D012046FCF75EFF002829
:105AC00010D129462046FEF77EFC09E095F82D000E
:105AD000800607D5224605F127012846FFF7A5FDD8
